:020000040000FA
:100000000C9462000C948A000C948A000C948A0070
:100010000C948A000C948A000C948A000C948A0038
:100020000C948A000C948A000C948A000C948A0028
:100030000C948A000C948A000C948A000C948A0018
:100040000C94AB070C948A000C941B080C94F507D5
:100050000C948A000C948A000C948A000C948A00F8
:100060000C944D080C948A00000000002400270026
:100070002A0000000000250028002B0000000000DE
:1000800023002600290004040404040404040202DA
:100090000202020203030303030301020408102007
:1000A0004080010204081020010204081020000012
:1000B0000008000201000003040700000000000027
:1000C00000006C0911241FBECFEFD8E0DEBFCDBF0A
:1000D00011E0A0E0B1E0E6E0FDE102C005900D9284
:1000E000AE36B107D9F722E0AEE6B1E001C01D920D
:1000F000AD3FB207E1F710E0C2E6D0E004C02197BF
:10010000FE010E947B0EC136D107C9F70E94DE09AD
:100110000C94810E0C940000833081F028F481301F
:1001200099F08230A9F008958730A9F08830C9F09D
:100130008430B1F4809180008F7D03C08091800075
:100140008F7780938000089584B58F7784BD08955C
:1001500084B58F7DFBCF8091B0008F778093B00006
:1001600008958091B0008F7DF9CFCF93DF93282F32
:1001700030E0F901E255FF4F8491F901E656FF4F57
:10018000D491F901EA57FF4FC491CC23A1F081111A
:100190000E948C00EC2FF0E0EE0FFF1FE458FF4FA1
:1001A000A591B491EC91ED2381E090E009F480E019
:1001B000DF91CF91089580E090E0FACF1F93CF9325
:1001C000DF93282F30E0F901E255FF4F8491F901C8
:1001D000E656FF4FD491F901EA57FF4FC491CC2363
:1001E000A9F0162F81110E948C00EC2FF0E0EE0F89
:1001F000FF1FEE58FF4FA591B4918FB7F894EC9183
:10020000111108C0D095DE23DC938FBFDF91CF9111
:100210001F910895DE2BF8CFCF93DF9390E0FC0180
:10022000E656FF4F24918A579F4FFC018491882303
:10023000D1F090E0880F991FFC01E859FF4FA5917C
:10024000B491FC01EE58FF4FC591D49161110EC0DD
:100250009FB7F8948C91E22FE0958E238C932881A0
:10026000E223E8839FBFDF91CF9108958FB7F89481
:10027000EC91E22BEC938FBFF6CF3FB7F8948091CF
:100280002A0290912B02A0912C02B0912D0226B54A
:10029000A89B05C02F3F19F00196A11DB11D3FBFBE
:1002A000BA2FA92F982F8827BC01CD01620F711D8D
:1002B000811D911D42E0660F771F881F991F4A9587
:1002C000D1F708958F929F92AF92BF92CF92DF9213
:1002D000EF92FF924B015C010E943D016B017C019A
:1002E0000E943D016C197D098E099F09683E73408B
:1002F00081059105A8F321E0821A9108A108B108AF
:1003000088EEC80E83E0D81EE11CF11C8114910414
:10031000A104B10429F7FF90EF90DF90CF90BF9038
:10032000AF909F908F90089508950895AF92BF92D7
:10033000CF92DF92EF92FF920F931F93CF93DF93B1
:100340006C017B018B01040F151FEB015E01AE18E0
:10035000BF08C017D10759F06991D601ED91FC9102
:100360000190F081E02DC6010995892B79F7C5012F
:10037000DF91CF911F910F91FF90EF90DF90CF9081
:10038000BF90AF900895FC01538D448D252F30E030
:10039000842F90E0821B930B541710F0CF96089592
:1003A00001970895FC01918D828D981761F0A28DBF
:1003B000AE0FBF2FB11D5D968C91928D9F5F9F7385
:1003C000928F90E008958FEF9FEF0895FC01918D3B
:1003D000828D981731F0828DE80FF11D858D90E0A8
:1003E00008958FEF9FEF0895FC01918D228D892F45
:1003F00090E0805C9F4F821B91098F73992708952D
:1004000082E392E00E94F40121E0892B09F420E0CC
:10041000822F089580E090E0892B29F00E9400024D
:1004200081110C9400000895FC01A48DA80FB92F30
:10043000B11DA35ABF4F2C91848D90E001968F730C
:100440009927848FA689B7892C93A089B1898C912B
:10045000837080648C93938D848D981306C002887A
:10046000F389E02D80818F7D80830895EF92FF9244
:100470000F931F93CF93DF93EC0181E0888F9B8DC7
:100480008C8D98131AC0E889F989808185FF15C081
:100490009FB7F894EE89FF896083E889F9898081A4
:1004A0008370806480839FBF81E090E0DF91CF9173
:1004B0001F910F91FF90EF900895F62E0B8D10E095
:1004C0000F5F1F4F0F731127E02E8C8D8E110CC004
:1004D0000FB607FCFACFE889F989808185FFF5CF4F
:1004E000CE010E941402F1CFEB8DEC0FFD2FF11D18
:1004F000E35AFF4FF0829FB7F8940B8FEA89FB898C
:1005000080818062CFCFCF93DF93EC01888D8823E9
:10051000B9F0AA89BB89E889F9898C9185FD03C066
:10052000808186FD0DC00FB607FCF7CF8C9185FF4B
:10053000F2CF808185FFEDCFCE010E941402E9CF7A
:10054000DF91CF9108952091D601260F3327331FD5
:1005500021323105ECF42091FA01FC0190E080E0B9
:10056000243069F082E00895A091D6012191AC0178
:100570004A545E4FA40FB52FB11D2C9301968617D8
:1005800098F38091D601680F6093D60180E00895BA
:1005900081E008951092FA0181E08093FC011092AD
:1005A000FB0161E082E10E94DE0061E083E10E94E4
:1005B000DE00E9EBF0E080818E7F808380818D7F9B
:1005C000808388E48093B80085E48093BC0008951C
:1005D000CF93DF9391E09093B5018823B9F0C09158
:1005E000B800D091BA008091BC008A7B8093BC0097
:1005F00060E082E10E94DE0060E083E10E94DE00B4
:100600000E94CA02D093BA00C093B800DF91CF9184
:1006100008950895E091270280912602E81730F4AA
:10062000F0E0E057FE4F808190E008958FEF9FEF5C
:10063000089590912702809126022FEF3FEF98179F
:1006400048F4E92FF0E0E057FE4F208130E09F5F53
:1006500090932702C9010895809126029091270264
:10066000891B990B0895CF92DF92EF92FF920F931F
:100670001F93CF93DF937C01CB018A0120918F01DF
:10068000222389F0EB016B01C40ED51ECC15DD05CC
:1006900069F06991D701ED91FC910190F081E02D15
:1006A000C7010995F3CF642F0E94A302C801DF910F
:1006B000CF911F910F91FF90EF90DF90CF90089511
:1006C000CF93DF931F92CDB7DEB7698320918F015F
:1006D0002223F9F020912402203258F021E030E06A
:1006E000FC013383228390E080E00F90DF91CF9173
:1006F000089580912502E82FF0E0E159FE4F99819D
:1007000090838F5F809325028093240281E090E0A4
:10071000ECCF61E0CE0101960E94A302F7CFCF9209
:10072000DF92EF92FF920F931F93CF93DF93FC0121
:10073000C48121E020938F01C0936E0110922502A5
:10074000109224028385682B8FEC92E00E94600354
:10075000D0912402D13208F092C00E943D016B0179
:100760007C018091FA01811165C082E08093FA01D9
:1007700081E08093FC018FEF8093F90110921E02BB
:10078000D0931D02AFE6B1E0EDEFF1E080E0D813C9
:1007900085C010921F0280911F02CC0FC82BC093FE
:1007A0001F028091FB01813009F07CC01092FB0197
:1007B0000E943D016B017C0180911F028093BB0070
:1007C0008091B1019091B201A091B301B091B401B7
:1007D000892B8A2B8B2B99F00E943D010091B1014E
:1007E0001091B2012091B3013091B4016C197D09CF
:1007F0008E099F090617170728073907E0F180912E
:10080000BC0083FDD9CF85EC8093BC000E943D01E4
:100810006B017C018091FA01823009F445C080911E
:10082000F9018F3F61F18091F901803241F18091AE
:10083000F90125C08091B1019091B201A091B3015D
:10084000B091B401892B8A2B8B2B09F48ACF0E949B
:100850003D010091B1011091B2012091B30130919D
:10086000B4016C197D098E099F090617170728071F
:10087000390708F076CF8091B0010E94E80210920B
:1008800025021092240210928F01DF91CF911F91C7
:100890000F91FF90EF90DF90CF9008959D919193ED
:1008A0008F5F75CF85EEB0CF8091B1019091B2018D
:1008B000A091B301B091B401892B8A2B8B2B09F441
:1008C000A9CF0E943D010091B1011091B201209188
:1008D000B3013091B4016C197D098E099F09061787
:1008E00017072807390708F095CFC5CF089590E07E
:1008F00080E00895EF92FF921F93CF93DF932FB77D
:10090000F89480912E0290912F02A0913002B09124
:1009100031022FBF4091F8025091F9026091FA0222
:100920007091FB0284179507A607B70740F4109251
:10093000F8021092F9021092FA021092FB02209132
:10094000FC02211118C04091F8025091F902609107
:10095000FA027091FB02841B950BA60BB70B803D2E
:100960009740A105B10538F481E0DF91CF911F9147
:10097000FF90EF9008951092FC022FB7F8948091A9
:100980002E0290912F02A0913002B09131022FBF20
:100990008093F8029093F902A093FA02B093FB02BD
:1009A0001092F3021092F2021092F1021092F002F1
:1009B0001092EF0261E08091F5020E94DE006AEF82
:1009C00070E080E090E00E94620161E08091F502B9
:1009D0000E940C0160E08091F5020E94DE0064E15B
:1009E00070E080E090E00E946201F89460E0809105
:1009F000F5020E940C0161E08091F5020E94DE0088
:100A00008BE990E00197F1F710E081E0C0E0D0E0E1
:100A1000E82EF12C8091F5020E94B5008E159F05FD
:100A200019F4DF5FDF3FB1F78091F5020E94B50056
:100A3000DF3FC1F0C43098F0C0FD11C0E12FE69552
:100A4000E695E695F0E0E151FD4F9081990F908396
:100A50002091F7022D1710F4916090831F5FCF5FF4
:100A6000C535A9F678941832B8F04091F302209178
:100A7000EF028091F002280F3327331F8091F1029B
:100A8000280F311D8091F202820F932F911D99271B
:100A90004817190609F468CF80E067CF0F931F93BA
:100AA000CF938C01C62F0E948F036C2F6460C80106
:100AB0000E948F036C2F6B7FC8010E948F0383EC11
:100AC00090E00197F1F7CF911F910F9108950F9347
:100AD0001F93CF93DF938C01D62FC42F607F642B9D
:100AE0000E944E0580E1D89FB00111246C2BC801F3
:100AF000DF91CF911F910F910C944E05CF93DF930F
:100B0000823028F09091E80298609093E8028093F8
:100B1000EB02662339F0813029F48091E802846089
:100B20008093E80262E370E080E090E00E9462015E
:100B30006091EE0283EE92E00E948F0368EE73E014
:100B400080E090E00E94620160E383EE92E00E9408
:100B50004E05CBE4D6E4CE010197F1F760E383EED6
:100B600092E00E944E052197F1F760E383EE92E058
:100B70000E944E0583E592E00197F1F760E283EE73
:100B800092E00E944E056091E802606240E083EED0
:100B900092E00E94670584E08093E90240E06CE007
:100BA00083EE92E00E94670540E061E083EE92E010
:100BB0000E946705CBE3DFE1CE010197F1F782E008
:100BC0008093EA0240E066E083EE92E00E946705CF
:100BD00040E062E083EE92E00E9467052197F1F722
:100BE000DF91CF910895CF93DF93CDB7DEB72897EC
:100BF0000FB6F894DEBF0FBECDBF98E0E8E0F1E09D
:100C0000DE01119601900D929A95E1F79091EB0219
:100C1000981708F48FEF90E0880F991F21E030E0DB
:100C20002C0F3D1F820F931FFC016081606840E024
:100C300083EE92E028960FB6F894DEBF0FBECDBFCC
:100C4000DF91CF910C94670541E00E94670581E038
:100C500090E00895FB0101900020E9F73197AF0182
:100C6000461B570BDC01ED91FC910280F381E02DD6
:100C700009948F929F92AF92BF92EF92FF920F933F
:100C80001F93CF93DF93CDB7DEB7A1970FB6F8943C
:100C9000DEBF0FBECDBF7C01FA01CB0119A222300D
:100CA00008F42AE08E010F5D1F4F822E912CB12C8B
:100CB000A12CBF01A50194010E94590EF901CA019E
:100CC0006A300CF5605DD8016E938D01232B242BC7
:100CD000252B79F790E080E0109721F0BD01C70146
:100CE0000E942A06A1960FB6F894DEBF0FBECDBFB4
:100CF000DF91CF911F910F91FF90EF90BF90AF9038
:100D00009F908F900895695CDECF2F923F924F9213
:100D10005F926F927F928F929F92AF92BF92CF928B
:100D2000DF92EF92FF921F93CF93DF93EC016A0162
:100D30007B01722EAB019601CB01B6010E94540ECD
:100D400060E471E0811126C046015701E894B7F8CC
:100D50002FEF3FEF4FE75FE7C501B4010E94540E4C
:100D600081110CC02FEF3FEF4FE75FE7C501B401E2
:100D70000E948A0C64E471E0181664F02FEF3FEFD4
:100D80004FE75FE4C701B6010E94E20D1816B4F404
:100D900068E471E0CE01DF91CF911F91FF90EF9059
:100DA000DF90CF90BF90AF909F908F907F906F908B
:100DB0005F904F903F902F900C942A062FEF3FEFBB
:100DC0004FE75FECC701B6010E948A0C87FDE0CFB8
:100DD00020E030E0A901C701B6010E948A0C312C45
:100DE000212C87FF0DC0E881F9810190F081E02D71
:100DF0006DE2CE0109951C01F7FAF094F7F8F09432
:100E000010E060E070E080E09FE3711641F020E0C8
:100E100030E040E251E40E948F0C1F5FF6CFA70143
:100E200096010E941E0C2B013C010E94010D4B01FA
:100E30005C012AE0BC01A401CE010E9439067C01BC
:100E4000E20CF31C1123E1F1C501B4010E94300D45
:100E50009B01AC01C301B2010E941D0C4B015C015E
:100E6000E881F9810190F081E02D6EE2CE010995D3
:100E7000E80EF91E115020F120E030E040E251E48C
:100E8000C501B4010E94E70D2B013C010E94010D38
:100E90004B01B12CA12C2AE0B501A401CE010E9486
:100EA0003906E80EF91EC501B4010E94300D9B0100
:100EB000AC01C301B2010E941D0C4B015C01DACFF1
:100EC000C701DF91CF911F91FF90EF90DF90CF90FE
:100ED000BF90AF909F908F907F906F905F904F905A
:100EE0003F902F90089585ED8093BC008091B101D3
:100EF0009091B201A091B301B091B4010796A11DE8
:100F0000B11D23E0B695A795979587952A95D1F7BA
:100F10002091BC0024FD03C01092FA010895409175
:100F2000B1015091B2016091B3017091B401452BB0
:100F3000462B472B69F30097A105B10541F02AE242
:100F40002A95F1F700C00197A109B109E1CF80917D
:100F5000B0010C94E8021F920F920FB60F92112469
:100F60002F933F938F939F93AF93BF9380912E02C4
:100F700090912F02A0913002B0913102309129025C
:100F800023E0230F2D3758F50196A11DB11D2093A5
:100F9000290280932E0290932F02A0933002B093E7
:100FA000310280912A0290912B02A0912C02B091E3
:100FB0002D020196A11DB11D80932A0290932B0250
:100FC000A0932C02B0932D02BF91AF919F918F916E
:100FD0003F912F910F900FBE0F901F90189526E80C
:100FE000230F0296A11DB11DD2CF1F920F920FB6F3
:100FF0000F9211242F933F934F935F936F937F939F
:101000008F939F93AF93BF93EF93FF9382E392E00D
:101010000E941402FF91EF91BF91AF919F918F9128
:101020007F916F915F914F913F912F910F900FBEE4
:101030000F901F9018951F920F920FB60F921124C8
:101040002F938F939F93EF93FF93E0914202F09140
:1010500043028081E0914802F091490282FD1BC069
:10106000908180914B028F5F8F7320914C02821789
:1010700041F0E0914B02F0E0EE5CFD4F958F8093E4
:101080004B02FF91EF919F918F912F910F900FBE87
:101090000F901F9018958081F4CF1F920F920FB67A
:1010A0000F9211242F933F934F935F936F937F93EE
:1010B0008F939F93AF93BF93EF93FF938091B9006A
:1010C000887F803609F44AC0F0F5883209F4A7C059
:1010D00018F5803109F49BC0B8F4882309F4F9C0ED
:1010E000883009F494C0FF91EF91BF91AF919F9127
:1010F0008F917F916F915F914F913F912F910F90C1
:101100000FBE0F901F901895883109F488C0803267
:1011100051F78093F90114C0803409F49DC040F464
:101120008033B9F38833F9F68093F90185ECB0C0C8
:10113000803509F485C0883509F496C0883499F65D
:101140000E947307D0CF883909F48CC038F58837EE
:1011500029F050F4883611F0803729F683E0809327
:10116000FA011092F80157C0883809F47BC0803921
:1011700019F0803809F0B7CF8091F801803208F07B
:1011800071C0E091F80181E08E0F8093F8018091A9
:10119000BB00F0E0E852FE4F80833DC0803B39F059
:1011A000E0F4803A09F479C0883A09F09CCF84E0F1
:1011B0008093FA011092D7011092D601E091220299
:1011C000F091230209958091D60181110FC081E031
:1011D0008093D6011092B60109C0803C09F4A6CFD5
:1011E000883C09F4A3CF883B09F07DCFE091D7017B
:1011F00081E08E0F8093D701F0E0EA54FE4F8081AA
:101200008093BB009091D7018091D60129C0809135
:101210001F028093BB0085EC8093BC0064CF90914B
:101220001E0280911D02981758F5E0911E0281E080
:101230008E0F80931E02F0E0E350FE4F8081E9CFD5
:10124000E0911E0281E08E0F80931E028091BB0010
:10125000F0E0E350FE4F808390911E0280911D02CA
:101260009817C8F285E8D8CFE0911E0281E08E0F72
:1012700080931E028091BB00F0E0E350FE4F80831C
:101280008091FC0181115CCF81E08093FB0184EAB5
:101290008093BC001092FA0126CF85EC8093BC00AD
:1012A0001092FA018091F801803230F4E091F80157
:1012B000F0E0E852FE4F10826091F80170E0E0919A
:1012C0002002F091210288ED91E009951092F80139
:1012D0000ACF1092F90134CFE2E3F2E013821282D6
:1012E00088EE93E0A0E0B0E084839583A683B78383
:1012F00024E131E03183208325EC30E035872487F9
:1013000024EC30E03787268720EC30E0318B208BCF
:1013100021EC30E0338B228B22EC30E0358B248BB8
:1013200026EC30E0378B268B118E128E138E148EA6
:10133000EFECF2E01382128284839583A683B78355
:1013400086E291E091838083EFEEF2E085E0868390
:101350008BE0878386E0808781E08587E3EEF2E09B
:101360001382128288E391E09183808387E28483F1
:1013700080E1818782E082871386809104019091C9
:101380000501A0910601B09107018093DF029093BF
:10139000E002A093E102B093E202809100019091FB
:1013A0000101A0910201B09103018093DB029093AF
:1013B000DC02A093DD02B093DE020895789484B538
:1013C000826084BD84B5816084BD85B5826085BD41
:1013D00085B5816085BD80916E00816080936E00CF
:1013E00010928100809181008260809381008091C1
:1013F0008100816080938100809180008160809372
:1014000080008091B10084608093B1008091B00031
:1014100081608093B00080917A00846080937A002C
:1014200080917A00826080937A0080917A00816056
:1014300080937A0080917A00806880937A0010927D
:10144000C10061E08AE00E940C0110922702109214
:10145000260210922502109224020E94CA0284E9F8
:1014600091E0909323028093220285E991E090938A
:101470002102809320021092E80260E08091ED0248
:101480000E947E056DE082E00E947E0588E08093E8
:10149000EE0260E083EE92E00E948F036091E90229
:1014A000862F82608093E9026A6040E083EE92E0DA
:1014B0000E94670560E08091F5020E940C0161E0E6
:1014C0008091F5020E94DE001092F8021092F9025B
:1014D0001092FA021092FB02E0914202F091430254
:1014E00082E08083E0913E02F0913F021082E09121
:1014F0004002F09141028FEC808310924A02E09109
:101500004602F091470286E08083E0914402F09128
:101510004502808180618083E0914402F091450220
:10152000808188608083E0914402F091450280814F
:1015300080688083E0914402F091450280818F7D34
:101540008083C0E0D0E00E947A04882341F080913B
:10155000F6028B3049F018F08551823030F160E0AE
:1015600070E080EC9FE707C06091F10270E090E0CE
:1015700080E00E94300D6093040170930501809318
:101580000601909307010E947A04882349F0809114
:10159000F6028B3081F120F08551823008F406C1CB
:1015A00060E070E080EC9FE72DC01091F102612FA8
:1015B0006F7770E090E080E00E94320D20E030E034
:1015C00040E853E40E94E70D6B017C016091F20258
:1015D00070E090E080E00E94320DA70196010E9429
:1015E0001E0C20E030E040E251E40E948F0C17FF17
:1015F000C2CF9058C0CF6091EF0270E090E080E0E1
:101600000E94300D609300017093010180930201EC
:10161000909303016CE471E082E392E00E942A0659
:1016200040910401509105016091060170910701FC
:1016300022E082E392E00E94850663E571E082E3A6
:1016400092E00E942A0666E571E082E392E00E9441
:101650002A064091000150910101609102017091B0
:10166000030122E082E392E00E94850663E571E0D7
:1016700082E392E00E942A06209104013091050144
:1016800040910601509107016091DF027091E002E4
:101690008091E1029091E2020E948A0C8823B1F0CD
:1016A00080E00E94F3056DE571E083EE92E00E9418
:1016B0002A06409104015091050160910601709144
:1016C000070122E083EE92E00E948506209100014E
:1016D0003091010140910201509103016091DB02C0
:1016E0007091DC028091DD029091DE020E948A0CF2
:1016F0008823B1F081E00E94F30565E671E083EE96
:1017000092E00E942A0640910001509101016091EF
:1017100002017091030122E083EE92E00E948506AF
:1017200068EE73E080E090E00E946201C0900401E6
:10173000D0900501E0900601F090070120E030E034
:1017400040E050E4C701B6010E941D0C4B015C0152
:1017500020E030E04CE052E40E94E20D18160CF05C
:1017600046C020E030E040E050E4C701B6010E94EE
:101770001E0C20E030E046E152E40E94E20D181613
:10178000B4F580912802882391F160E08AE00E94FC
:10179000DE0010922802209709F4D5CE0E940002A4
:1017A000882309F4D0CE0E940000CDCE6091EF02D4
:1017B00070E090E080E00E94300D20E030E040E8F2
:1017C00053E40E94E70D6B017C016091F00270E030
:1017D00090E080E00E94320DA70196010E941E0C4D
:1017E00020E030E040E251E40E948F0C0BCF20E07B
:1017F00030E04CE052E4C501B4010E948A0C181696
:1018000054F220E030E040E050E4C701B6010E940D
:101810001E0C20E030E046E152E40E948A0C87FF73
:10182000BACF809128028111B6CF61E08AE00E9490
:10183000DE0081E080932802AECF5058BB27AA2754
:101840000E94350C0C94A80D0E949A0D38F00E944D
:10185000A10D20F039F49F3F19F426F40C94970D54
:101860000EF4E095E7FB0C94910DE92F0E94B90D61
:1018700058F3BA17620773078407950720F079F4C5
:10188000A6F50C94DB0D0EF4E0950B2EBA2FA02DCF
:101890000B01B90190010C01CA01A0011124FF271D
:1018A000591B99F0593F50F4503E68F11A16F04018
:1018B000A22F232F342F4427585FF3CF4695379517
:1018C0002795A795F0405395C9F77EF41F16BA0BDC
:1018D000620B730B840BBAF09150A1F0FF0FBB1F8A
:1018E000661F771F881FC2F70EC0BA0F621F731FD3
:1018F000841F48F4879577956795B795F7959E3F30
:1019000008F0B0CF9395880F08F09927EE0F9795C0
:10191000879508950E946D0D08F481E008950E9456
:10192000A30C0C94A80D0E94A10D58F00E949A0DD2
:1019300040F029F45F3F29F00C94910D51110C9463
:10194000DC0D0C94970D0E94B90D68F39923B1F347
:10195000552391F3951B550BBB27AA2762177307D5
:10196000840738F09F5F5F4F220F331F441FAA1F69
:10197000A9F335D00E2E3AF0E0E832D09150504025
:10198000E695001CCAF72BD0FE2F29D0660F771FD3
:10199000881FBB1F261737074807AB07B0E809F0B9
:1019A000BB0B802DBF01FF2793585F4F3AF09E3F3E
:1019B000510578F00C94910D0C94DC0D5F3FE4F32D
:1019C000983ED4F3869577956795B795F7959F5F81
:1019D000C9F7880F911D9695879597F90895E1E0CD
:1019E000660F771F881FBB1F621773078407BA072C
:1019F00020F0621B730B840BBA0BEE1F88F7E09587
:101A000008950E94C10D88F09F5798F0B92F99272B
:101A1000B751B0F0E1F0660F771F881F991F1AF0D9
:101A2000BA95C9F714C0B13091F00E94DB0DB1E056
:101A300008950C94DB0D672F782F8827B85F39F055
:101A4000B93FCCF3869577956795B395D9F73EF472
:101A500090958095709561957F4F8F4F9F4F08951A
:101A6000E89409C097FB3EF4909580957095619538
:101A70007F4F8F4F9F4F9923A9F0F92F96E9BB27EE
:101A80009395F695879577956795B795F111F8CF6A
:101A9000FAF4BB0F11F460FF1BC06F5F7F4F8F4FD5
:101AA0009F4F16C0882311F096E911C0772321F0CB
:101AB0009EE8872F762F05C0662371F096E8862F63
:101AC00070E060E02AF09A95660F771F881FDAF7BA
:101AD000880F9695879597F90895990F0008550FE7
:101AE000AA0BE0E8FEEF16161706E807F907C0F0A4
:101AF00012161306E407F50798F0621B730B840BAC
:101B0000950B39F40A2661F0232B242B252B21F485
:101B100008950A2609F4A140A6958FEF811D811D25
:101B2000089597F99F6780E870E060E008959FEF5F
:101B300080EC089500240A94161617061806090664
:101B4000089500240A941216130614060506089533
:101B5000092E0394000C11F4882352F0BB0F40F4BB
:101B6000BF2B11F460FF04C06F5F7F4F8F4F9F4FFB
:101B7000089557FD9058440F551F59F05F3F71F07D
:101B80004795880F97FB991F61F09F3F79F08795E4
:101B90000895121613061406551FF2CF4695F1DF6D
:101BA00008C0161617061806991FF1CF86957105FD
:101BB000610508940895E894BB2766277727CB0131
:101BC00097F908950E946D0D08F48FEF08950E9413
:101BD000FA0D0C94A80D0E949A0D38F00E94A10DE8
:101BE00020F0952311F00C94910D0C94970D112475
:101BF0000C94DC0D0E94B90D70F3959FC1F3950F05
:101C000050E0551F629FF001729FBB27F00DB11D80
:101C1000639FAA27F00DB11DAA1F649F6627B00D10
:101C2000A11D661F829F2227B00DA11D621F739FF9
:101C3000B00DA11D621F839FA00D611D221F749F07
:101C40003327A00D611D231F849F600D211D822F4E
:101C5000762F6A2F11249F5750409AF0F1F0882375
:101C60004AF0EE0FFF1FBB1F661F771F881F9150A2
:101C70005040A9F79E3F510580F00C94910D0C94B3
:101C8000DC0D5F3FE4F3983ED4F386957795679536
:101C9000B795F795E7959F5FC1F7FE2B880F911DCC
:101CA0009695879597F908950E946D0D880B990B6D
:101CB0000895A1E21A2EAA1BBB1BFD010DC0AA1F8D
:101CC000BB1FEE1FFF1FA217B307E407F50720F0A5
:101CD000A21BB30BE40BF50B661F771F881F991F20
:101CE0001A9469F760957095809590959B01AC0169
:101CF000BD01CF010895EE0FFF1F0590F491E02D77
:101D00000994F894FFCF0000C07F0000C07F00005E
:101D10004000140054000000000036029601C30188
:101D20008302F401D201E6010000000060033303E6
:101D3000770409032C0319030A030000000024069A
:101D40009601770476046E616E00696E66006F76A8
:101D5000660074656D703A20000D0A002068756D8C
:101D60003A200074656D70203A200068756D20205F
:041D70003A20000015
:107E0000112484B714BE81FFF0D085E080938100F7
:107E100082E08093C00088E18093C10086E0809377
:107E2000C20080E18093C4008EE0C9D0259A86E02C
:107E300020E33CEF91E0309385002093840096BBD3
:107E4000B09BFECF1D9AA8958150A9F7CC24DD24C4
:107E500088248394B5E0AB2EA1E19A2EF3E0BF2EE7
:107E6000A2D0813461F49FD0082FAFD0023811F036
:107E7000013811F484E001C083E08DD089C08234E0
:107E800011F484E103C0853419F485E0A6D080C0E4
:107E9000853579F488D0E82EFF2485D0082F10E0AE
:107EA000102F00270E291F29000F111F8ED06801E7
:107EB0006FC0863521F484E090D080E0DECF843638
:107EC00009F040C070D06FD0082F6DD080E0C81688
:107ED00080E7D80618F4F601B7BEE895C0E0D1E017
:107EE00062D089930C17E1F7F0E0CF16F0E7DF06D8
:107EF00018F0F601B7BEE89568D007B600FCFDCFD4
:107F0000A601A0E0B1E02C9130E011968C91119780
:107F100090E0982F8827822B932B1296FA010C0160
:107F200087BEE89511244E5F5F4FF1E0A038BF0790
:107F300051F7F601A7BEE89507B600FCFDCF97BE46
:107F4000E89526C08437B1F42ED02DD0F82E2BD052
:107F50003CD0F601EF2C8F010F5F1F4F84911BD097
:107F6000EA94F801C1F70894C11CD11CFA94CF0C13
:107F7000D11C0EC0853739F428D08EE10CD085E9AC
:107F80000AD08FE07ACF813511F488E018D01DD067
:107F900080E101D065CF982F8091C00085FFFCCF94
:107FA0009093C60008958091C00087FFFCCF809118
:107FB000C00084FD01C0A8958091C6000895E0E648
:107FC000F0E098E1908380830895EDDF803219F02E
:107FD00088E0F5DFFFCF84E1DECF1F93182FE3DFCA
:107FE0001150E9F7F2DF1F91089580E0E8DFEE27F6
:047FF000FF270994CA
:027FFE00040479
:00000001FF
